{
  "contractName": "SharkCoin",
  "abi": [
    {
      "inputs": [
        {
          "internalType": "uint256",
          "name": "initialSupply",
          "type": "uint256"
        }
      ],
      "stateMutability": "nonpayable",
      "type": "constructor"
    },
    {
      "inputs": [
        {
          "internalType": "address",
          "name": "spender",
          "type": "address"
        },
        {
          "internalType": "uint256",
          "name": "allowance",
          "type": "uint256"
        },
        {
          "internalType": "uint256",
          "name": "needed",
          "type": "uint256"
        }
      ],
      "name": "ERC20InsufficientAllowance",
      "type": "error"
    },
    {
      "inputs": [
        {
          "internalType": "address",
          "name": "sender",
          "type": "address"
        },
        {
          "internalType": "uint256",
          "name": "balance",
          "type": "uint256"
        },
        {
          "internalType": "uint256",
          "name": "needed",
          "type": "uint256"
        }
      ],
      "name": "ERC20InsufficientBalance",
      "type": "error"
    },
    {
      "inputs": [
        {
          "internalType": "address",
          "name": "approver",
          "type": "address"
        }
      ],
      "name": "ERC20InvalidApprover",
      "type": "error"
    },
    {
      "inputs": [
        {
          "internalType": "address",
          "name": "receiver",
          "type": "address"
        }
      ],
      "name": "ERC20InvalidReceiver",
      "type": "error"
    },
    {
      "inputs": [
        {
          "internalType": "address",
          "name": "sender",
          "type": "address"
        }
      ],
      "name": "ERC20InvalidSender",
      "type": "error"
    },
    {
      "inputs": [
        {
          "internalType": "address",
          "name": "spender",
          "type": "address"
        }
      ],
      "name": "ERC20InvalidSpender",
      "type": "error"
    },
    {
      "inputs": [
        {
          "internalType": "address",
          "name": "owner",
          "type": "address"
        }
      ],
      "name": "OwnableInvalidOwner",
      "type": "error"
    },
    {
      "inputs": [
        {
          "internalType": "address",
          "name": "account",
          "type": "address"
        }
      ],
      "name": "OwnableUnauthorizedAccount",
      "type": "error"
    },
    {
      "anonymous": false,
      "inputs": [
        {
          "indexed": true,
          "internalType": "address",
          "name": "owner",
          "type": "address"
        },
        {
          "indexed": true,
          "internalType": "address",
          "name": "spender",
          "type": "address"
        },
        {
          "indexed": false,
          "internalType": "uint256",
          "name": "value",
          "type": "uint256"
        }
      ],
      "name": "Approval",
      "type": "event"
    },
    {
      "anonymous": false,
      "inputs": [
        {
          "indexed": true,
          "internalType": "address",
          "name": "previousOwner",
          "type": "address"
        },
        {
          "indexed": true,
          "internalType": "address",
          "name": "newOwner",
          "type": "address"
        }
      ],
      "name": "OwnershipTransferred",
      "type": "event"
    },
    {
      "anonymous": false,
      "inputs": [
        {
          "indexed": false,
          "internalType": "uint256",
          "name": "newRate",
          "type": "uint256"
        }
      ],
      "name": "TokenBurnRateChanged",
      "type": "event"
    },
    {
      "anonymous": false,
      "inputs": [
        {
          "indexed": true,
          "internalType": "address",
          "name": "from",
          "type": "address"
        },
        {
          "indexed": true,
          "internalType": "address",
          "name": "to",
          "type": "address"
        },
        {
          "indexed": false,
          "internalType": "uint256",
          "name": "value",
          "type": "uint256"
        }
      ],
      "name": "Transfer",
      "type": "event"
    },
    {
      "inputs": [
        {
          "internalType": "address",
          "name": "owner",
          "type": "address"
        },
        {
          "internalType": "address",
          "name": "spender",
          "type": "address"
        }
      ],
      "name": "allowance",
      "outputs": [
        {
          "internalType": "uint256",
          "name": "",
          "type": "uint256"
        }
      ],
      "stateMutability": "view",
      "type": "function",
      "constant": true
    },
    {
      "inputs": [
        {
          "internalType": "address",
          "name": "spender",
          "type": "address"
        },
        {
          "internalType": "uint256",
          "name": "value",
          "type": "uint256"
        }
      ],
      "name": "approve",
      "outputs": [
        {
          "internalType": "bool",
          "name": "",
          "type": "bool"
        }
      ],
      "stateMutability": "nonpayable",
      "type": "function"
    },
    {
      "inputs": [
        {
          "internalType": "address",
          "name": "account",
          "type": "address"
        }
      ],
      "name": "balanceOf",
      "outputs": [
        {
          "internalType": "uint256",
          "name": "",
          "type": "uint256"
        }
      ],
      "stateMutability": "view",
      "type": "function",
      "constant": true
    },
    {
      "inputs": [
        {
          "internalType": "uint256",
          "name": "value",
          "type": "uint256"
        }
      ],
      "name": "burn",
      "outputs": [],
      "stateMutability": "nonpayable",
      "type": "function"
    },
    {
      "inputs": [
        {
          "internalType": "address",
          "name": "account",
          "type": "address"
        },
        {
          "internalType": "uint256",
          "name": "value",
          "type": "uint256"
        }
      ],
      "name": "burnFrom",
      "outputs": [],
      "stateMutability": "nonpayable",
      "type": "function"
    },
    {
      "inputs": [],
      "name": "decimals",
      "outputs": [
        {
          "internalType": "uint8",
          "name": "",
          "type": "uint8"
        }
      ],
      "stateMutability": "view",
      "type": "function",
      "constant": true
    },
    {
      "inputs": [
        {
          "internalType": "address",
          "name": "",
          "type": "address"
        }
      ],
      "name": "frozenAccounts",
      "outputs": [
        {
          "internalType": "uint256",
          "name": "amount",
          "type": "uint256"
        },
        {
          "internalType": "uint256",
          "name": "unlockTime",
          "type": "uint256"
        }
      ],
      "stateMutability": "view",
      "type": "function",
      "constant": true
    },
    {
      "inputs": [],
      "name": "name",
      "outputs": [
        {
          "internalType": "string",
          "name": "",
          "type": "string"
        }
      ],
      "stateMutability": "view",
      "type": "function",
      "constant": true
    },
    {
      "inputs": [],
      "name": "owner",
      "outputs": [
        {
          "internalType": "address",
          "name": "",
          "type": "address"
        }
      ],
      "stateMutability": "view",
      "type": "function",
      "constant": true
    },
    {
      "inputs": [],
      "name": "renounceOwnership",
      "outputs": [],
      "stateMutability": "nonpayable",
      "type": "function"
    },
    {
      "inputs": [],
      "name": "symbol",
      "outputs": [
        {
          "internalType": "string",
          "name": "",
          "type": "string"
        }
      ],
      "stateMutability": "view",
      "type": "function",
      "constant": true
    },
    {
      "inputs": [],
      "name": "tokenBurnRatePercent",
      "outputs": [
        {
          "internalType": "uint256",
          "name": "",
          "type": "uint256"
        }
      ],
      "stateMutability": "view",
      "type": "function",
      "constant": true
    },
    {
      "inputs": [],
      "name": "totalSupply",
      "outputs": [
        {
          "internalType": "uint256",
          "name": "",
          "type": "uint256"
        }
      ],
      "stateMutability": "view",
      "type": "function",
      "constant": true
    },
    {
      "inputs": [
        {
          "internalType": "address",
          "name": "newOwner",
          "type": "address"
        }
      ],
      "name": "transferOwnership",
      "outputs": [],
      "stateMutability": "nonpayable",
      "type": "function"
    },
    {
      "inputs": [],
      "name": "unlockTokens",
      "outputs": [],
      "stateMutability": "nonpayable",
      "type": "function"
    },
    {
      "inputs": [
        {
          "internalType": "address",
          "name": "recipient",
          "type": "address"
        },
        {
          "internalType": "uint256",
          "name": "amount",
          "type": "uint256"
        }
      ],
      "name": "transfer",
      "outputs": [
        {
          "internalType": "bool",
          "name": "",
          "type": "bool"
        }
      ],
      "stateMutability": "nonpayable",
      "type": "function"
    },
    {
      "inputs": [
        {
          "internalType": "address",
          "name": "sender",
          "type": "address"
        },
        {
          "internalType": "address",
          "name": "recipient",
          "type": "address"
        },
        {
          "internalType": "uint256",
          "name": "amount",
          "type": "uint256"
        }
      ],
      "name": "transferFrom",
      "outputs": [
        {
          "internalType": "bool",
          "name": "",
          "type": "bool"
        }
      ],
      "stateMutability": "nonpayable",
      "type": "function"
    },
    {
      "inputs": [
        {
          "internalType": "address",
          "name": "account",
          "type": "address"
        },
        {
          "internalType": "uint256",
          "name": "amount",
          "type": "uint256"
        }
      ],
      "name": "areTokensUnlocked",
      "outputs": [
        {
          "internalType": "bool",
          "name": "",
          "type": "bool"
        }
      ],
      "stateMutability": "view",
      "type": "function",
      "constant": true
    },
    {
      "inputs": [
        {
          "internalType": "uint256",
          "name": "_newRate",
          "type": "uint256"
        }
      ],
      "name": "setTokenBurnRatePercent",
      "outputs": [],
      "stateMutability": "nonpayable",
      "type": "function"
    },
    {
      "inputs": [
        {
          "internalType": "address",
          "name": "account",
          "type": "address"
        }
      ],
      "name": "getFrozenBalance",
      "outputs": [
        {
          "internalType": "uint256",
          "name": "",
          "type": "uint256"
        }
      ],
      "stateMutability": "view",
      "type": "function",
      "constant": true
    }
  ],
  "bytecode": "0x60806040526001600655348015610014575f80fd5b506040516121dd3803806121dd83398181016040528101906100369190610585565b336040518060400160405280600981526020017f536861726b436f696e00000000000000000000000000000000000000000000008152506040518060400160405280600381526020017f53484b000000000000000000000000000000000000000000000000000000000081525081600390816100b291906107e1565b5080600490816100c291906107e1565b5050505f73ffffffffffffffffffffffffffffffffffffffff168173ffffffffffffffffffffffffffffffffffffffff1603610135575f6040517f1e4fbdf700000000000000000000000000000000000000000000000000000000815260040161012c91906108ef565b60405180910390fd5b610144816101ed60201b60201c565b5061015533826102b060201b60201c565b5f60646028836101659190610935565b61016f91906109a3565b9050604051806040016040528082815260200162278d004261019191906109d3565b81525060075f3373ffffffffffffffffffffffffffffffffffffffff1673ffffffffffffffffffffffffffffffffffffffff1681526020019081526020015f205f820151815f0155602082015181600101559050505050610a63565b5f60055f9054906101000a900473ffffffffffffffffffffffffffffffffffffffff1690508160055f6101000a81548173ffffffffffffffffffffffffffffffffffffffff021916908373ffffffffffffffffffffffffffffffffffffffff1602179055508173ffffffffffffffffffffffffffffffffffffffff168173ffffffffffffffffffffffffffffffffffffffff167f8be0079c531659141344cd1fd0a4f28419497f9722a3daafe3b4186f6b6457e060405160405180910390a35050565b5f73ffffffffffffffffffffffffffffffffffffffff168273ffffffffffffffffffffffffffffffffffffffff1603610320575f6040517fec442f0500000000000000000000000000000000000000000000000000000000815260040161031791906108ef565b60405180910390fd5b6103315f838361033560201b60201c565b5050565b5f73ffffffffffffffffffffffffffffffffffffffff168373ffffffffffffffffffffffffffffffffffffffff1603610385578060025f82825461037991906109d3565b92505081905550610453565b5f805f8573ffffffffffffffffffffffffffffffffffffffff1673ffffffffffffffffffffffffffffffffffffffff1681526020019081526020015f205490508181101561040e578381836040517fe450d38c00000000000000000000000000000000000000000000000000000000815260040161040593929190610a15565b60405180910390fd5b8181035f808673ffffffffffffffffffffffffffffffffffffffff1673ffffffffffffffffffffffffffffffffffffffff1681526020019081526020015f2081905550505b5f73ffffffffffffffffffffffffffffffffffffffff168273ffffffffffffffffffffffffffffffffffffffff160361049a578060025f82825403925050819055506104e4565b805f808473ffffffffffffffffffffffffffffffffffffffff1673ffffffffffffffffffffffffffffffffffffffff1681526020019081526020015f205f82825401925050819055505b8173ffffffffffffffffffffffffffffffffffffffff168373ffffffffffffffffffffffffffffffffffffffff167fddf252ad1be2c89b69c2b068fc378daa952ba7f163c4a11628f55a4df523b3ef836040516105419190610a4a565b60405180910390a3505050565b5f80fd5b5f819050919050565b61056481610552565b811461056e575f80fd5b50565b5f8151905061057f8161055b565b92915050565b5f6020828403121561059a5761059961054e565b5b5f6105a784828501610571565b91505092915050565b5f81519050919050565b7f4e487b71000000000000000000000000000000000000000000000000000000005f52604160045260245ffd5b7f4e487b71000000000000000000000000000000000000000000000000000000005f52602260045260245ffd5b5f600282049050600182168061062b57607f821691505b60208210810361063e5761063d6105e7565b5b50919050565b5f819050815f5260205f209050919050565b5f6020601f8301049050919050565b5f82821b905092915050565b5f600883026106a07fffffffffffffffffffffffffffffffffffffffffffffffffffffffffffffffff82610665565b6106aa8683610665565b95508019841693508086168417925050509392505050565b5f819050919050565b5f6106e56106e06106db84610552565b6106c2565b610552565b9050919050565b5f819050919050565b6106fe836106cb565b61071261070a826106ec565b848454610671565b825550505050565b5f90565b61072661071a565b6107318184846106f5565b505050565b5b81811015610754576107495f8261071e565b600181019050610737565b5050565b601f8211156107995761076a81610644565b61077384610656565b81016020851015610782578190505b61079661078e85610656565b830182610736565b50505b505050565b5f82821c905092915050565b5f6107b95f198460080261079e565b1980831691505092915050565b5f6107d183836107aa565b9150826002028217905092915050565b6107ea826105b0565b67ffffffffffffffff811115610803576108026105ba565b5b61080d8254610614565b610818828285610758565b5f60209050601f831160018114610849575f8415610837578287015190505b61084185826107c6565b8655506108a8565b601f19841661085786610644565b5f5b8281101561087e57848901518255600182019150602085019450602081019050610859565b8683101561089b5784890151610897601f8916826107aa565b8355505b6001600288020188555050505b505050505050565b5f73ffffffffffffffffffffffffffffffffffffffff82169050919050565b5f6108d9826108b0565b9050919050565b6108e9816108cf565b82525050565b5f6020820190506109025f8301846108e0565b92915050565b7f4e487b71000000000000000000000000000000000000000000000000000000005f52601160045260245ffd5b5f61093f82610552565b915061094a83610552565b925082820261095881610552565b9150828204841483151761096f5761096e610908565b5b5092915050565b7f4e487b71000000000000000000000000000000000000000000000000000000005f52601260045260245ffd5b5f6109ad82610552565b91506109b883610552565b9250826109c8576109c7610976565b5b828204905092915050565b5f6109dd82610552565b91506109e883610552565b9250828201905080821115610a00576109ff610908565b5b92915050565b610a0f81610552565b82525050565b5f606082019050610a285f8301866108e0565b610a356020830185610a06565b610a426040830184610a06565b949350505050565b5f602082019050610a5d5f830184610a06565b92915050565b61176d80610a705f395ff3fe608060405234801561000f575f80fd5b506004361061012a575f3560e01c8063715018a6116100ab5780639f2cfaf11161006f5780639f2cfaf114610331578063a9059cbb14610361578063dd62ed3e14610391578063f2fde38b146103c1578063f968f493146103dd5761012a565b8063715018a61461029e57806379cc6790146102a8578063860838a5146102c45780638da5cb5b146102f557806395d89b41146103135761012a565b806323b872dd116100f257806323b872dd146101d4578063313ce5671461020457806342966c681461022257806362d324cc1461023e57806370a082311461026e5761012a565b806306fdde031461012e57806308777aca1461014c578063095ea7b31461016a5780631077ce221461019a57806318160ddd146101b6575b5f80fd5b6101366103e7565b6040516101439190611229565b60405180910390f35b610154610477565b6040516101619190611261565b60405180910390f35b610184600480360381019061017f9190611302565b61047d565b604051610191919061135a565b60405180910390f35b6101b460048036038101906101af9190611373565b61049f565b005b6101be6104e8565b6040516101cb9190611261565b60405180910390f35b6101ee60048036038101906101e9919061139e565b6104f1565b6040516101fb919061135a565b60405180910390f35b61020c61054f565b6040516102199190611409565b60405180910390f35b61023c60048036038101906102379190611373565b610557565b005b61025860048036038101906102539190611302565b61056b565b604051610265919061135a565b60405180910390f35b61028860048036038101906102839190611422565b6105d4565b6040516102959190611261565b60405180910390f35b6102a6610619565b005b6102c260048036038101906102bd9190611302565b61062c565b005b6102de60048036038101906102d99190611422565b61064c565b6040516102ec92919061144d565b60405180910390f35b6102fd61066c565b60405161030a9190611483565b60405180910390f35b61031b610694565b6040516103289190611229565b60405180910390f35b61034b60048036038101906103469190611422565b610724565b6040516103589190611261565b60405180910390f35b61037b60048036038101906103769190611302565b61076c565b604051610388919061135a565b60405180910390f35b6103ab60048036038101906103a6919061149c565b6107c8565b6040516103b89190611261565b60405180910390f35b6103db60048036038101906103d69190611422565b61084a565b005b6103e56108ce565b005b6060600380546103f690611507565b80601f016020809104026020016040519081016040528092919081815260200182805461042290611507565b801561046d5780601f106104445761010080835404028352916020019161046d565b820191905f5260205f20905b81548152906001019060200180831161045057829003601f168201915b5050505050905090565b60065481565b5f80610487610a1d565b9050610494818585610a24565b600191505092915050565b6104a7610a36565b806006819055507fe74c971bdb24693a9a8f4833bb1f5e6bb58ddc3f39a38c5f10f3de085a40d9cc816040516104dd9190611261565b60405180910390a150565b5f600254905090565b5f6104fc848361056b565b61053b576040517f08c379a000000000000000000000000000000000000000000000000000000000815260040161053290611581565b60405180910390fd5b610546848484610abd565b90509392505050565b5f6012905090565b610568610562610a1d565b82610aeb565b50565b5f8060075f8573ffffffffffffffffffffffffffffffffffffffff1673ffffffffffffffffffffffffffffffffffffffff1681526020019081526020015f2090505f815f01546105ba866105d4565b6105c491906115cc565b9050808411159250505092915050565b5f805f8373ffffffffffffffffffffffffffffffffffffffff1673ffffffffffffffffffffffffffffffffffffffff1681526020019081526020015f20549050919050565b610621610a36565b61062a5f610b6a565b565b61063e82610638610a1d565b83610c2d565b6106488282610aeb565b5050565b6007602052805f5260405f205f91509050805f0154908060010154905082565b5f60055f9054906101000a900473ffffffffffffffffffffffffffffffffffffffff16905090565b6060600480546106a390611507565b80601f01602080910402602001604051908101604052809291908181526020018280546106cf90611507565b801561071a5780601f106106f15761010080835404028352916020019161071a565b820191905f5260205f20905b8154815290600101906020018083116106fd57829003601f168201915b5050505050905090565b5f60075f8373ffffffffffffffffffffffffffffffffffffffff1673ffffffffffffffffffffffffffffffffffffffff1681526020019081526020015f205f01549050919050565b5f610777338361056b565b6107b6576040517f08c379a00000000000000000000000000000000000000000000000000000000081526004016107ad90611581565b60405180910390fd5b6107c08383610cbf565b905092915050565b5f60015f8473ffffffffffffffffffffffffffffffffffffffff1673ffffffffffffffffffffffffffffffffffffffff1681526020019081526020015f205f8373ffffffffffffffffffffffffffffffffffffffff1673ffffffffffffffffffffffffffffffffffffffff1681526020019081526020015f2054905092915050565b610852610a36565b5f73ffffffffffffffffffffffffffffffffffffffff168173ffffffffffffffffffffffffffffffffffffffff16036108c2575f6040517f1e4fbdf70000000000000000000000000000000000000000000000000000000081526004016108b99190611483565b60405180910390fd5b6108cb81610b6a565b50565b5f60075f3373ffffffffffffffffffffffffffffffffffffffff1673ffffffffffffffffffffffffffffffffffffffff1681526020019081526020015f2090508060010154421015610955576040517f08c379a000000000000000000000000000000000000000000000000000000000815260040161094c90611649565b60405180910390fd5b5f815f01541161099a576040517f08c379a0000000000000000000000000000000000000000000000000000000008152600401610991906116b1565b60405180910390fd5b5f815f015490505f825f01819055506109b4303383610ce1565b3373ffffffffffffffffffffffffffffffffffffffff163073ffffffffffffffffffffffffffffffffffffffff167fddf252ad1be2c89b69c2b068fc378daa952ba7f163c4a11628f55a4df523b3ef83604051610a119190611261565b60405180910390a35050565b5f33905090565b610a318383836001610dd1565b505050565b610a3e610a1d565b73ffffffffffffffffffffffffffffffffffffffff16610a5c61066c565b73ffffffffffffffffffffffffffffffffffffffff1614610abb57610a7f610a1d565b6040517f118cdaa7000000000000000000000000000000000000000000000000000000008152600401610ab29190611483565b60405180910390fd5b565b5f80610ac7610a1d565b9050610ad4858285610c2d565b610adf858585610ce1565b60019150509392505050565b5f73ffffffffffffffffffffffffffffffffffffffff168273ffffffffffffffffffffffffffffffffffffffff1603610b5b575f6040517f96c6fd1e000000000000000000000000000000000000000000000000000000008152600401610b529190611483565b60405180910390fd5b610b66825f83610fa0565b5050565b5f60055f9054906101000a900473ffffffffffffffffffffffffffffffffffffffff1690508160055f6101000a81548173ffffffffffffffffffffffffffffffffffffffff021916908373ffffffffffffffffffffffffffffffffffffffff1602179055508173ffffffffffffffffffffffffffffffffffffffff168173ffffffffffffffffffffffffffffffffffffffff167f8be0079c531659141344cd1fd0a4f28419497f9722a3daafe3b4186f6b6457e060405160405180910390a35050565b5f610c3884846107c8565b90507fffffffffffffffffffffffffffffffffffffffffffffffffffffffffffffffff8114610cb95781811015610caa578281836040517ffb8f41b2000000000000000000000000000000000000000000000000000000008152600401610ca1939291906116cf565b60405180910390fd5b610cb884848484035f610dd1565b5b50505050565b5f80610cc9610a1d565b9050610cd6818585610ce1565b600191505092915050565b5f73ffffffffffffffffffffffffffffffffffffffff168373ffffffffffffffffffffffffffffffffffffffff1603610d51575f6040517f96c6fd1e000000000000000000000000000000000000000000000000000000008152600401610d489190611483565b60405180910390fd5b5f73ffffffffffffffffffffffffffffffffffffffff168273ffffffffffffffffffffffffffffffffffffffff1603610dc1575f6040517fec442f05000000000000000000000000000000000000000000000000000000008152600401610db89190611483565b60405180910390fd5b610dcc838383610fa0565b505050565b5f73ffffffffffffffffffffffffffffffffffffffff168473ffffffffffffffffffffffffffffffffffffffff1603610e41575f6040517fe602df05000000000000000000000000000000000000000000000000000000008152600401610e389190611483565b60405180910390fd5b5f73ffffffffffffffffffffffffffffffffffffffff168373ffffffffffffffffffffffffffffffffffffffff1603610eb1575f6040517f94280d62000000000000000000000000000000000000000000000000000000008152600401610ea89190611483565b60405180910390fd5b8160015f8673ffffffffffffffffffffffffffffffffffffffff1673ffffffffffffffffffffffffffffffffffffffff1681526020019081526020015f205f8573ffffffffffffffffffffffffffffffffffffffff1673ffffffffffffffffffffffffffffffffffffffff1681526020019081526020015f20819055508015610f9a578273ffffffffffffffffffffffffffffffffffffffff168473ffffffffffffffffffffffffffffffffffffffff167f8c5be1e5ebec7d5bd14f71427d1e84f3dd0314c0f7b2291e5b200ac8c7c3b92584604051610f919190611261565b60405180910390a35b50505050565b5f73ffffffffffffffffffffffffffffffffffffffff168373ffffffffffffffffffffffffffffffffffffffff1603610ff0578060025f828254610fe49190611704565b925050819055506110be565b5f805f8573ffffffffffffffffffffffffffffffffffffffff1673ffffffffffffffffffffffffffffffffffffffff1681526020019081526020015f2054905081811015611079578381836040517fe450d38c000000000000000000000000000000000000000000000000000000008152600401611070939291906116cf565b60405180910390fd5b8181035f808673ffffffffffffffffffffffffffffffffffffffff1673ffffffffffffffffffffffffffffffffffffffff1681526020019081526020015f2081905550505b5f73ffffffffffffffffffffffffffffffffffffffff168273ffffffffffffffffffffffffffffffffffffffff1603611105578060025f828254039250508190555061114f565b805f808473ffffffffffffffffffffffffffffffffffffffff1673ffffffffffffffffffffffffffffffffffffffff1681526020019081526020015f205f82825401925050819055505b8173ffffffffffffffffffffffffffffffffffffffff168373ffffffffffffffffffffffffffffffffffffffff167fddf252ad1be2c89b69c2b068fc378daa952ba7f163c4a11628f55a4df523b3ef836040516111ac9190611261565b60405180910390a3505050565b5f81519050919050565b5f82825260208201905092915050565b8281835e5f83830152505050565b5f601f19601f8301169050919050565b5f6111fb826111b9565b61120581856111c3565b93506112158185602086016111d3565b61121e816111e1565b840191505092915050565b5f6020820190508181035f83015261124181846111f1565b905092915050565b5f819050919050565b61125b81611249565b82525050565b5f6020820190506112745f830184611252565b92915050565b5f80fd5b5f73ffffffffffffffffffffffffffffffffffffffff82169050919050565b5f6112a78261127e565b9050919050565b6112b78161129d565b81146112c1575f80fd5b50565b5f813590506112d2816112ae565b92915050565b6112e181611249565b81146112eb575f80fd5b50565b5f813590506112fc816112d8565b92915050565b5f80604083850312156113185761131761127a565b5b5f611325858286016112c4565b9250506020611336858286016112ee565b9150509250929050565b5f8115159050919050565b61135481611340565b82525050565b5f60208201905061136d5f83018461134b565b92915050565b5f602082840312156113885761138761127a565b5b5f611395848285016112ee565b91505092915050565b5f805f606084860312156113b5576113b461127a565b5b5f6113c2868287016112c4565b93505060206113d3868287016112c4565b92505060406113e4868287016112ee565b9150509250925092565b5f60ff82169050919050565b611403816113ee565b82525050565b5f60208201905061141c5f8301846113fa565b92915050565b5f602082840312156114375761143661127a565b5b5f611444848285016112c4565b91505092915050565b5f6040820190506114605f830185611252565b61146d6020830184611252565b9392505050565b61147d8161129d565b82525050565b5f6020820190506114965f830184611474565b92915050565b5f80604083850312156114b2576114b161127a565b5b5f6114bf858286016112c4565b92505060206114d0858286016112c4565b9150509250929050565b7f4e487b71000000000000000000000000000000000000000000000000000000005f52602260045260245ffd5b5f600282049050600182168061151e57607f821691505b602082108103611531576115306114da565b5b50919050565b7f536f6d6520746f6b656e7320617265207374696c6c206c6f636b6564000000005f82015250565b5f61156b601c836111c3565b915061157682611537565b602082019050919050565b5f6020820190508181035f8301526115988161155f565b9050919050565b7f4e487b71000000000000000000000000000000000000000000000000000000005f52601160045260245ffd5b5f6115d682611249565b91506115e183611249565b92508282039050818111156115f9576115f861159f565b5b92915050565b7f546f6b656e7320617265207374696c6c206c6f636b65640000000000000000005f82015250565b5f6116336017836111c3565b915061163e826115ff565b602082019050919050565b5f6020820190508181035f83015261166081611627565b9050919050565b7f4e6f20746f6b656e7320746f20756e6c6f636b000000000000000000000000005f82015250565b5f61169b6013836111c3565b91506116a682611667565b602082019050919050565b5f6020820190508181035f8301526116c88161168f565b9050919050565b5f6060820190506116e25f830186611474565b6116ef6020830185611252565b6116fc6040830184611252565b949350505050565b5f61170e82611249565b915061171983611249565b92508282019050808211156117315761173061159f565b5b9291505056fea2646970667358221220aa14478aa2094539ec1441bd2395c8f89c729b2271628bdac66a0b52f1be288864736f6c63430008190033",
  "immutableReferences": {},
  "source": "// SPDX-License-Identifier: MIT\r\npragma solidity ^0.8.25;\r\n\r\nimport \"@openzeppelin/contracts/token/ERC20/ERC20.sol\";\r\nimport \"@openzeppelin/contracts/token/ERC20/extensions/ERC20Burnable.sol\";\r\nimport \"@openzeppelin/contracts/access/Ownable.sol\";\r\n\r\ncontract SharkCoin is ERC20, ERC20Burnable, Ownable {\r\n    uint256 public tokenBurnRatePercent = 1;\r\n    uint256 private constant PERCENT_DIVISOR = 100;\r\n\r\n    struct FrozenTokens {\r\n        uint256 amount;\r\n        uint256 unlockTime;\r\n    }\r\n\r\n    mapping(address => FrozenTokens) public frozenAccounts;\r\n\r\n    event TokenBurnRateChanged(uint256 newRate);\r\n\r\n    constructor(uint256 initialSupply) ERC20(\"SharkCoin\", \"SHK\") Ownable(msg.sender) {\r\n        _mint(msg.sender, initialSupply); // Mint the total supply upfront\r\n\r\n        // Lock 40% of the total supply for the deployer\r\n        uint256 lockAmount = (initialSupply * 40) / 100;\r\n        frozenAccounts[msg.sender] = FrozenTokens(lockAmount, block.timestamp + 30 days);\r\n    }\r\n\r\n    function unlockTokens() public {\r\n        FrozenTokens storage frozen = frozenAccounts[msg.sender];\r\n        require(block.timestamp >= frozen.unlockTime, \"Tokens are still locked\");\r\n        require(frozen.amount > 0, \"No tokens to unlock\");\r\n\r\n        uint256 amountToUnlock = frozen.amount; // Unlock all for simplicity in this demo\r\n        frozen.amount = 0; // All tokens are now unlocked\r\n        _transfer(address(this), msg.sender, amountToUnlock); // Adjust to reflect actual token movement if needed\r\n\r\n        emit Transfer(address(this), msg.sender, amountToUnlock); // Optional: Emit an event for the unlock transfer\r\n    }\r\n\r\n    function transfer(address recipient, uint256 amount) public override returns (bool) {\r\n        require(areTokensUnlocked(msg.sender, amount), \"Some tokens are still locked\");\r\n        return super.transfer(recipient, amount);\r\n    }\r\n\r\n    function transferFrom(address sender, address recipient, uint256 amount) public override returns (bool) {\r\n        require(areTokensUnlocked(sender, amount), \"Some tokens are still locked\");\r\n        return super.transferFrom(sender, recipient, amount);\r\n    }\r\n\r\n    function areTokensUnlocked(address account, uint256 amount) public view returns (bool) {\r\n        FrozenTokens storage frozen = frozenAccounts[account];\r\n        uint256 unlockedTokens = balanceOf(account) - frozen.amount;\r\n        return amount <= unlockedTokens;\r\n    }\r\n\r\n    function _ensureTokensUnfrozen(address account) internal view {\r\n        FrozenTokens memory frozen = frozenAccounts[account];\r\n        require(block.timestamp >= frozen.unlockTime || frozen.amount == 0, \"Tokens still frozen\");\r\n    }\r\n\r\n    function _calculateAmounts(uint256 amount) internal view returns (uint256, uint256) {\r\n        uint256 burnAmount = amount * tokenBurnRatePercent / PERCENT_DIVISOR;\r\n        uint256 sendAmount = amount - burnAmount;\r\n        return (burnAmount, sendAmount);\r\n    }\r\n\r\n    function setTokenBurnRatePercent(uint256 _newRate) public onlyOwner {\r\n        tokenBurnRatePercent = _newRate;\r\n        emit TokenBurnRateChanged(_newRate);\r\n    }\r\n\r\n    function getFrozenBalance(address account) public view returns (uint256) {\r\n        return frozenAccounts[account].amount;\r\n    }\r\n}\r\n",
  "sourcePath": "C:\\Cshark\\TT\\blockchaine\\ETH\\sharkCoin\\contracts\\SharkCoin.sol",
  "compiler": {
    "name": "solc",
    "version": "0.8.25+commit.b61c2a91.Emscripten.clang"
  },
  "schemaVersion": "3.4.16",
  "updatedAt": "2024-03-26T13:55:00.079Z",
  "networkType": "ethereum",
  "devdoc": {
    "errors": {
      "ERC20InsufficientAllowance(address,uint256,uint256)": [
        {
          "details": "Indicates a failure with the `spender`s `allowance`. Used in transfers.",
          "params": {
            "allowance": "Amount of tokens a `spender` is allowed to operate with.",
            "needed": "Minimum amount required to perform a transfer.",
            "spender": "Address that may be allowed to operate on tokens without being their owner."
          }
        }
      ],
      "ERC20InsufficientBalance(address,uint256,uint256)": [
        {
          "details": "Indicates an error related to the current `balance` of a `sender`. Used in transfers.",
          "params": {
            "balance": "Current balance for the interacting account.",
            "needed": "Minimum amount required to perform a transfer.",
            "sender": "Address whose tokens are being transferred."
          }
        }
      ],
      "ERC20InvalidApprover(address)": [
        {
          "details": "Indicates a failure with the `approver` of a token to be approved. Used in approvals.",
          "params": {
            "approver": "Address initiating an approval operation."
          }
        }
      ],
      "ERC20InvalidReceiver(address)": [
        {
          "details": "Indicates a failure with the token `receiver`. Used in transfers.",
          "params": {
            "receiver": "Address to which tokens are being transferred."
          }
        }
      ],
      "ERC20InvalidSender(address)": [
        {
          "details": "Indicates a failure with the token `sender`. Used in transfers.",
          "params": {
            "sender": "Address whose tokens are being transferred."
          }
        }
      ],
      "ERC20InvalidSpender(address)": [
        {
          "details": "Indicates a failure with the `spender` to be approved. Used in approvals.",
          "params": {
            "spender": "Address that may be allowed to operate on tokens without being their owner."
          }
        }
      ],
      "OwnableInvalidOwner(address)": [
        {
          "details": "The owner is not a valid owner account. (eg. `address(0)`)"
        }
      ],
      "OwnableUnauthorizedAccount(address)": [
        {
          "details": "The caller account is not authorized to perform an operation."
        }
      ]
    },
    "events": {
      "Approval(address,address,uint256)": {
        "details": "Emitted when the allowance of a `spender` for an `owner` is set by a call to {approve}. `value` is the new allowance."
      },
      "Transfer(address,address,uint256)": {
        "details": "Emitted when `value` tokens are moved from one account (`from`) to another (`to`). Note that `value` may be zero."
      }
    },
    "kind": "dev",
    "methods": {
      "allowance(address,address)": {
        "details": "See {IERC20-allowance}."
      },
      "approve(address,uint256)": {
        "details": "See {IERC20-approve}. NOTE: If `value` is the maximum `uint256`, the allowance is not updated on `transferFrom`. This is semantically equivalent to an infinite approval. Requirements: - `spender` cannot be the zero address."
      },
      "balanceOf(address)": {
        "details": "See {IERC20-balanceOf}."
      },
      "burn(uint256)": {
        "details": "Destroys a `value` amount of tokens from the caller. See {ERC20-_burn}."
      },
      "burnFrom(address,uint256)": {
        "details": "Destroys a `value` amount of tokens from `account`, deducting from the caller's allowance. See {ERC20-_burn} and {ERC20-allowance}. Requirements: - the caller must have allowance for ``accounts``'s tokens of at least `value`."
      },
      "decimals()": {
        "details": "Returns the number of decimals used to get its user representation. For example, if `decimals` equals `2`, a balance of `505` tokens should be displayed to a user as `5.05` (`505 / 10 ** 2`). Tokens usually opt for a value of 18, imitating the relationship between Ether and Wei. This is the default value returned by this function, unless it's overridden. NOTE: This information is only used for _display_ purposes: it in no way affects any of the arithmetic of the contract, including {IERC20-balanceOf} and {IERC20-transfer}."
      },
      "name()": {
        "details": "Returns the name of the token."
      },
      "owner()": {
        "details": "Returns the address of the current owner."
      },
      "renounceOwnership()": {
        "details": "Leaves the contract without owner. It will not be possible to call `onlyOwner` functions. Can only be called by the current owner. NOTE: Renouncing ownership will leave the contract without an owner, thereby disabling any functionality that is only available to the owner."
      },
      "symbol()": {
        "details": "Returns the symbol of the token, usually a shorter version of the name."
      },
      "totalSupply()": {
        "details": "See {IERC20-totalSupply}."
      },
      "transferOwnership(address)": {
        "details": "Transfers ownership of the contract to a new account (`newOwner`). Can only be called by the current owner."
      }
    },
    "version": 1
  },
  "userdoc": {
    "kind": "user",
    "methods": {},
    "version": 1
  }
}