{
  "contractName": "SharkCoinStaking",
  "abi": [
    {
      "inputs": [
        {
          "internalType": "contract IERC20",
          "name": "_sharkCoin",
          "type": "address"
        }
      ],
      "stateMutability": "nonpayable",
      "type": "constructor"
    },
    {
      "inputs": [
        {
          "internalType": "address",
          "name": "owner",
          "type": "address"
        }
      ],
      "name": "OwnableInvalidOwner",
      "type": "error"
    },
    {
      "inputs": [
        {
          "internalType": "address",
          "name": "account",
          "type": "address"
        }
      ],
      "name": "OwnableUnauthorizedAccount",
      "type": "error"
    },
    {
      "inputs": [],
      "name": "ReentrancyGuardReentrantCall",
      "type": "error"
    },
    {
      "anonymous": false,
      "inputs": [
        {
          "indexed": true,
          "internalType": "address",
          "name": "previousOwner",
          "type": "address"
        },
        {
          "indexed": true,
          "internalType": "address",
          "name": "newOwner",
          "type": "address"
        }
      ],
      "name": "OwnershipTransferred",
      "type": "event"
    },
    {
      "anonymous": false,
      "inputs": [
        {
          "indexed": true,
          "internalType": "address",
          "name": "user",
          "type": "address"
        },
        {
          "indexed": false,
          "internalType": "uint256",
          "name": "amount",
          "type": "uint256"
        },
        {
          "indexed": false,
          "internalType": "uint256",
          "name": "timestamp",
          "type": "uint256"
        }
      ],
      "name": "Staked",
      "type": "event"
    },
    {
      "anonymous": false,
      "inputs": [
        {
          "indexed": true,
          "internalType": "address",
          "name": "user",
          "type": "address"
        },
        {
          "indexed": false,
          "internalType": "uint256",
          "name": "amount",
          "type": "uint256"
        },
        {
          "indexed": false,
          "internalType": "uint256",
          "name": "reward",
          "type": "uint256"
        },
        {
          "indexed": false,
          "internalType": "uint256",
          "name": "timestamp",
          "type": "uint256"
        }
      ],
      "name": "Unstaked",
      "type": "event"
    },
    {
      "inputs": [],
      "name": "apr",
      "outputs": [
        {
          "internalType": "uint256",
          "name": "",
          "type": "uint256"
        }
      ],
      "stateMutability": "view",
      "type": "function",
      "constant": true
    },
    {
      "inputs": [],
      "name": "owner",
      "outputs": [
        {
          "internalType": "address",
          "name": "",
          "type": "address"
        }
      ],
      "stateMutability": "view",
      "type": "function",
      "constant": true
    },
    {
      "inputs": [],
      "name": "renounceOwnership",
      "outputs": [],
      "stateMutability": "nonpayable",
      "type": "function"
    },
    {
      "inputs": [],
      "name": "sharkCoin",
      "outputs": [
        {
          "internalType": "contract IERC20",
          "name": "",
          "type": "address"
        }
      ],
      "stateMutability": "view",
      "type": "function",
      "constant": true
    },
    {
      "inputs": [
        {
          "internalType": "address",
          "name": "",
          "type": "address"
        },
        {
          "internalType": "uint256",
          "name": "",
          "type": "uint256"
        }
      ],
      "name": "stakes",
      "outputs": [
        {
          "internalType": "uint256",
          "name": "amount",
          "type": "uint256"
        },
        {
          "internalType": "uint256",
          "name": "timestamp",
          "type": "uint256"
        }
      ],
      "stateMutability": "view",
      "type": "function",
      "constant": true
    },
    {
      "inputs": [
        {
          "internalType": "address",
          "name": "newOwner",
          "type": "address"
        }
      ],
      "name": "transferOwnership",
      "outputs": [],
      "stateMutability": "nonpayable",
      "type": "function"
    },
    {
      "inputs": [
        {
          "internalType": "uint256",
          "name": "_amount",
          "type": "uint256"
        }
      ],
      "name": "stake",
      "outputs": [],
      "stateMutability": "nonpayable",
      "type": "function"
    },
    {
      "inputs": [
        {
          "internalType": "uint256",
          "name": "stakeIndex",
          "type": "uint256"
        }
      ],
      "name": "unstake",
      "outputs": [],
      "stateMutability": "nonpayable",
      "type": "function"
    },
    {
      "inputs": [
        {
          "internalType": "uint256",
          "name": "_amount",
          "type": "uint256"
        },
        {
          "internalType": "uint256",
          "name": "_stakedPeriod",
          "type": "uint256"
        }
      ],
      "name": "calculateReward",
      "outputs": [
        {
          "internalType": "uint256",
          "name": "",
          "type": "uint256"
        }
      ],
      "stateMutability": "view",
      "type": "function",
      "constant": true
    },
    {
      "inputs": [
        {
          "internalType": "uint256",
          "name": "_newApr",
          "type": "uint256"
        }
      ],
      "name": "setApr",
      "outputs": [],
      "stateMutability": "nonpayable",
      "type": "function"
    },
    {
      "inputs": [
        {
          "internalType": "address",
          "name": "tokenAddress",
          "type": "address"
        },
        {
          "internalType": "uint256",
          "name": "tokenAmount",
          "type": "uint256"
        }
      ],
      "name": "recoverERC20",
      "outputs": [],
      "stateMutability": "nonpayable",
      "type": "function"
    },
    {
      "inputs": [
        {
          "internalType": "address",
          "name": "account",
          "type": "address"
        }
      ],
      "name": "unstakedBalanceOf",
      "outputs": [
        {
          "internalType": "uint256",
          "name": "",
          "type": "uint256"
        }
      ],
      "stateMutability": "view",
      "type": "function",
      "constant": true
    },
    {
      "inputs": [
        {
          "internalType": "address",
          "name": "account",
          "type": "address"
        }
      ],
      "name": "getUnlockedBalance",
      "outputs": [
        {
          "internalType": "uint256",
          "name": "",
          "type": "uint256"
        }
      ],
      "stateMutability": "view",
      "type": "function",
      "constant": true
    },
    {
      "inputs": [
        {
          "internalType": "address",
          "name": "_user",
          "type": "address"
        }
      ],
      "name": "getStakedBalance",
      "outputs": [
        {
          "internalType": "uint256",
          "name": "",
          "type": "uint256"
        }
      ],
      "stateMutability": "view",
      "type": "function",
      "constant": true
    }
  ],
  "bytecode": "0x6080604052600a600355348015610014575f80fd5b50604051611d24380380611d2483398181016040528101906100369190610236565b3360015f819055505f73ffffffffffffffffffffffffffffffffffffffff168173ffffffffffffffffffffffffffffffffffffffff16036100ae575f6040517f1e4fbdf70000000000000000000000000000000000000000000000000000000081526004016100a59190610270565b60405180910390fd5b6100bd8161010460201b60201c565b508060025f6101000a81548173ffffffffffffffffffffffffffffffffffffffff021916908373ffffffffffffffffffffffffffffffffffffffff16021790555050610289565b5f60015f9054906101000a900473ffffffffffffffffffffffffffffffffffffffff1690508160015f6101000a81548173ffffffffffffffffffffffffffffffffffffffff021916908373ffffffffffffffffffffffffffffffffffffffff1602179055508173ffffffffffffffffffffffffffffffffffffffff168173ffffffffffffffffffffffffffffffffffffffff167f8be0079c531659141344cd1fd0a4f28419497f9722a3daafe3b4186f6b6457e060405160405180910390a35050565b5f80fd5b5f73ffffffffffffffffffffffffffffffffffffffff82169050919050565b5f6101f4826101cb565b9050919050565b5f610205826101ea565b9050919050565b610215816101fb565b811461021f575f80fd5b50565b5f815190506102308161020c565b92915050565b5f6020828403121561024b5761024a6101c7565b5b5f61025884828501610222565b91505092915050565b61026a816101ea565b82525050565b5f6020820190506102835f830184610261565b92915050565b611a8e806102965f395ff3fe608060405234801561000f575f80fd5b50600436106100e8575f3560e01c8063715018a61161008a5780638da5cb5b116100645780638da5cb5b14610259578063a694fc3a14610277578063de336e1914610293578063f2fde38b146102b1576100e8565b8063715018a6146102035780638980f11f1461020d5780638b45a67314610229576100e8565b80633a02a42d116100c65780633a02a42d1461016857806357ded9c914610198578063584b62a1146101b657806359cee29c146101e7576100e8565b8063129de5bf146100ec57806313ed08461461011c5780632e17de781461014c575b5f80fd5b6101066004803603810190610101919061132d565b6102cd565b6040516101139190611370565b60405180910390f35b610136600480360381019061013191906113b3565b610411565b6040516101439190611370565b60405180910390f35b610166600480360381019061016191906113f1565b610479565b005b610182600480360381019061017d919061132d565b610968565b60405161018f9190611370565b60405180910390f35b6101a0610b37565b6040516101ad9190611370565b60405180910390f35b6101d060048036038101906101cb919061141c565b610b3d565b6040516101de92919061145a565b60405180910390f35b61020160048036038101906101fc91906113f1565b610b77565b005b61020b610bcb565b005b6102276004803603810190610222919061141c565b610bde565b005b610243600480360381019061023e919061132d565b610c6d565b6040516102509190611370565b60405180910390f35b610261610db6565b60405161026e9190611490565b60405180910390f35b610291600480360381019061028c91906113f1565b610dde565b005b61029b611088565b6040516102a89190611504565b60405180910390f35b6102cb60048036038101906102c6919061132d565b6110ad565b005b5f60025f9054906101000a900473ffffffffffffffffffffffffffffffffffffffff1673ffffffffffffffffffffffffffffffffffffffff16639f2cfaf1836040518263ffffffff1660e01b81526004016103289190611490565b602060405180830381865afa158015610343573d5f803e3d5ffd5b505050506040513d601f19601f820116820180604052508101906103679190611531565b60025f9054906101000a900473ffffffffffffffffffffffffffffffffffffffff1673ffffffffffffffffffffffffffffffffffffffff166370a08231846040518263ffffffff1660e01b81526004016103c19190611490565b602060405180830381865afa1580156103dc573d5f803e3d5ffd5b505050506040513d601f19601f820116820180604052508101906104009190611531565b61040a9190611589565b9050919050565b5f8060646301e13380670de0b6b3a764000060035461043091906115bc565b61043a919061162a565b610444919061162a565b9050670de0b6b3a764000083828661045c91906115bc565b61046691906115bc565b610470919061162a565b91505092915050565b610481611131565b60045f3373ffffffffffffffffffffffffffffffffffffffff1673ffffffffffffffffffffffffffffffffffffffff1681526020019081526020015f20805490508110610503576040517f08c379a00000000000000000000000000000000000000000000000000000000081526004016104fa906116b4565b60405180910390fd5b5f60045f3373ffffffffffffffffffffffffffffffffffffffff1673ffffffffffffffffffffffffffffffffffffffff1681526020019081526020015f208281548110610553576105526116d2565b5b905f5260205f20906002020190505f815f0154116105a6576040517f08c379a000000000000000000000000000000000000000000000000000000000815260040161059d90611749565b60405180910390fd5b60025f9054906101000a900473ffffffffffffffffffffffffffffffffffffffff1673ffffffffffffffffffffffffffffffffffffffff166362d324cc33835f01546040518363ffffffff1660e01b8152600401610605929190611767565b602060405180830381865afa158015610620573d5f803e3d5ffd5b505050506040513d601f19601f8201168201806040525081019061064491906117c3565b610683576040517f08c379a000000000000000000000000000000000000000000000000000000000815260040161067a90611838565b60405180910390fd5b5f8160010154426106949190611589565b90505f6106a4835f015483610411565b90505f81845f01546106b69190611856565b905060025f9054906101000a900473ffffffffffffffffffffffffffffffffffffffff1673ffffffffffffffffffffffffffffffffffffffff1663a9059cbb33836040518363ffffffff1660e01b8152600401610714929190611767565b6020604051808303815f875af1158015610730573d5f803e3d5ffd5b505050506040513d601f19601f8201168201806040525081019061075491906117c3565b503373ffffffffffffffffffffffffffffffffffffffff167f204fccf0d92ed8d48f204adb39b2e81e92bad0dedb93f5716ca9478cfb57de00855f015484426040516107a293929190611889565b60405180910390a25f8590505b600160045f3373ffffffffffffffffffffffffffffffffffffffff1673ffffffffffffffffffffffffffffffffffffffff1681526020019081526020015f20805490506107fc9190611589565b8110156108e75760045f3373ffffffffffffffffffffffffffffffffffffffff1673ffffffffffffffffffffffffffffffffffffffff1681526020019081526020015f2060018261084d9190611856565b8154811061085e5761085d6116d2565b5b905f5260205f20906002020160045f3373ffffffffffffffffffffffffffffffffffffffff1673ffffffffffffffffffffffffffffffffffffffff1681526020019081526020015f2082815481106108b9576108b86116d2565b5b905f5260205f2090600202015f820154815f01556001820154816001015590505080806001019150506107af565b5060045f3373ffffffffffffffffffffffffffffffffffffffff1673ffffffffffffffffffffffffffffffffffffffff1681526020019081526020015f20805480610935576109346118be565b5b600190038181905f5260205f2090600202015f8082015f9055600182015f90555050905550505050610965611175565b50565b5f805f90505f5b60045f8573ffffffffffffffffffffffffffffffffffffffff1673ffffffffffffffffffffffffffffffffffffffff1681526020019081526020015f2080549050811015610b2d5760025f9054906101000a900473ffffffffffffffffffffffffffffffffffffffff1673ffffffffffffffffffffffffffffffffffffffff166362d324cc8560045f8873ffffffffffffffffffffffffffffffffffffffff1673ffffffffffffffffffffffffffffffffffffffff1681526020019081526020015f208481548110610a4457610a436116d2565b5b905f5260205f2090600202015f01546040518363ffffffff1660e01b8152600401610a70929190611767565b602060405180830381865afa158015610a8b573d5f803e3d5ffd5b505050506040513d601f19601f82011682018060405250810190610aaf91906117c3565b15610b205760045f8573ffffffffffffffffffffffffffffffffffffffff1673ffffffffffffffffffffffffffffffffffffffff1681526020019081526020015f208181548110610b0357610b026116d2565b5b905f5260205f2090600202015f015482610b1d9190611856565b91505b808060010191505061096f565b5080915050919050565b60035481565b6004602052815f5260405f208181548110610b56575f80fd5b905f5260205f2090600202015f9150915050805f0154908060010154905082565b610b7f61117e565b5f8111610bc1576040517f08c379a0000000000000000000000000000000000000000000000000000000008152600401610bb890611935565b60405180910390fd5b8060038190555050565b610bd361117e565b610bdc5f611205565b565b610be661117e565b8173ffffffffffffffffffffffffffffffffffffffff1663a9059cbb610c0a610db6565b836040518363ffffffff1660e01b8152600401610c28929190611767565b6020604051808303815f875af1158015610c44573d5f803e3d5ffd5b505050506040513d601f19601f82011682018060405250810190610c6891906117c3565b505050565b5f8060025f9054906101000a900473ffffffffffffffffffffffffffffffffffffffff1673ffffffffffffffffffffffffffffffffffffffff16639f2cfaf1846040518263ffffffff1660e01b8152600401610cc99190611490565b602060405180830381865afa158015610ce4573d5f803e3d5ffd5b505050506040513d601f19601f82011682018060405250810190610d089190611531565b90508060025f9054906101000a900473ffffffffffffffffffffffffffffffffffffffff1673ffffffffffffffffffffffffffffffffffffffff166370a08231856040518263ffffffff1660e01b8152600401610d659190611490565b602060405180830381865afa158015610d80573d5f803e3d5ffd5b505050506040513d601f19601f82011682018060405250810190610da49190611531565b610dae9190611589565b915050919050565b5f60015f9054906101000a900473ffffffffffffffffffffffffffffffffffffffff16905090565b610de6611131565b5f8111610e28576040517f08c379a0000000000000000000000000000000000000000000000000000000008152600401610e1f9061199d565b60405180910390fd5b60025f9054906101000a900473ffffffffffffffffffffffffffffffffffffffff1673ffffffffffffffffffffffffffffffffffffffff166362d324cc33836040518363ffffffff1660e01b8152600401610e84929190611767565b602060405180830381865afa158015610e9f573d5f803e3d5ffd5b505050506040513d601f19601f82011682018060405250810190610ec391906117c3565b610f02576040517f08c379a0000000000000000000000000000000000000000000000000000000008152600401610ef990611a05565b60405180910390fd5b60025f9054906101000a900473ffffffffffffffffffffffffffffffffffffffff1673ffffffffffffffffffffffffffffffffffffffff166323b872dd3330846040518463ffffffff1660e01b8152600401610f6093929190611a23565b6020604051808303815f875af1158015610f7c573d5f803e3d5ffd5b505050506040513d601f19601f82011682018060405250810190610fa091906117c3565b5060045f3373ffffffffffffffffffffffffffffffffffffffff1673ffffffffffffffffffffffffffffffffffffffff1681526020019081526020015f20604051806040016040528083815260200142815250908060018154018082558091505060019003905f5260205f2090600202015f909190919091505f820151815f01556020820151816001015550503373ffffffffffffffffffffffffffffffffffffffff167f1449c6dd7851abc30abf37f57715f492010519147cc2652fbc38202c18a6ee90824260405161107592919061145a565b60405180910390a2611085611175565b50565b60025f9054906101000a900473ffffffffffffffffffffffffffffffffffffffff1681565b6110b561117e565b5f73ffffffffffffffffffffffffffffffffffffffff168173ffffffffffffffffffffffffffffffffffffffff1603611125575f6040517f1e4fbdf700000000000000000000000000000000000000000000000000000000815260040161111c9190611490565b60405180910390fd5b61112e81611205565b50565b60025f540361116c576040517f3ee5aeb500000000000000000000000000000000000000000000000000000000815260040160405180910390fd5b60025f81905550565b60015f81905550565b6111866112c8565b73ffffffffffffffffffffffffffffffffffffffff166111a4610db6565b73ffffffffffffffffffffffffffffffffffffffff1614611203576111c76112c8565b6040517f118cdaa70000000000000000000000000000000000000000000000000000000081526004016111fa9190611490565b60405180910390fd5b565b5f60015f9054906101000a900473ffffffffffffffffffffffffffffffffffffffff1690508160015f6101000a81548173ffffffffffffffffffffffffffffffffffffffff021916908373ffffffffffffffffffffffffffffffffffffffff1602179055508173ffffffffffffffffffffffffffffffffffffffff168173ffffffffffffffffffffffffffffffffffffffff167f8be0079c531659141344cd1fd0a4f28419497f9722a3daafe3b4186f6b6457e060405160405180910390a35050565b5f33905090565b5f80fd5b5f73ffffffffffffffffffffffffffffffffffffffff82169050919050565b5f6112fc826112d3565b9050919050565b61130c816112f2565b8114611316575f80fd5b50565b5f8135905061132781611303565b92915050565b5f60208284031215611342576113416112cf565b5b5f61134f84828501611319565b91505092915050565b5f819050919050565b61136a81611358565b82525050565b5f6020820190506113835f830184611361565b92915050565b61139281611358565b811461139c575f80fd5b50565b5f813590506113ad81611389565b92915050565b5f80604083850312156113c9576113c86112cf565b5b5f6113d68582860161139f565b92505060206113e78582860161139f565b9150509250929050565b5f60208284031215611406576114056112cf565b5b5f6114138482850161139f565b91505092915050565b5f8060408385031215611432576114316112cf565b5b5f61143f85828601611319565b92505060206114508582860161139f565b9150509250929050565b5f60408201905061146d5f830185611361565b61147a6020830184611361565b9392505050565b61148a816112f2565b82525050565b5f6020820190506114a35f830184611481565b92915050565b5f819050919050565b5f6114cc6114c76114c2846112d3565b6114a9565b6112d3565b9050919050565b5f6114dd826114b2565b9050919050565b5f6114ee826114d3565b9050919050565b6114fe816114e4565b82525050565b5f6020820190506115175f8301846114f5565b92915050565b5f8151905061152b81611389565b92915050565b5f60208284031215611546576115456112cf565b5b5f6115538482850161151d565b91505092915050565b7f4e487b71000000000000000000000000000000000000000000000000000000005f52601160045260245ffd5b5f61159382611358565b915061159e83611358565b92508282039050818111156115b6576115b561155c565b5b92915050565b5f6115c682611358565b91506115d183611358565b92508282026115df81611358565b915082820484148315176115f6576115f561155c565b5b5092915050565b7f4e487b71000000000000000000000000000000000000000000000000000000005f52601260045260245ffd5b5f61163482611358565b915061163f83611358565b92508261164f5761164e6115fd565b5b828204905092915050565b5f82825260208201905092915050565b7f496e76616c6964207374616b6520696e646578000000000000000000000000005f82015250565b5f61169e60138361165a565b91506116a98261166a565b602082019050919050565b5f6020820190508181035f8301526116cb81611692565b9050919050565b7f4e487b71000000000000000000000000000000000000000000000000000000005f52603260045260245ffd5b7f4e6f20746f6b656e73207374616b6564000000000000000000000000000000005f82015250565b5f61173360108361165a565b915061173e826116ff565b602082019050919050565b5f6020820190508181035f83015261176081611727565b9050919050565b5f60408201905061177a5f830185611481565b6117876020830184611361565b9392505050565b5f8115159050919050565b6117a28161178e565b81146117ac575f80fd5b50565b5f815190506117bd81611799565b92915050565b5f602082840312156117d8576117d76112cf565b5b5f6117e5848285016117af565b91505092915050565b7f5374616b6520746f6b656e7320617265207374696c6c206c6f636b65640000005f82015250565b5f611822601d8361165a565b915061182d826117ee565b602082019050919050565b5f6020820190508181035f83015261184f81611816565b9050919050565b5f61186082611358565b915061186b83611358565b92508282019050808211156118835761188261155c565b5b92915050565b5f60608201905061189c5f830186611361565b6118a96020830185611361565b6118b66040830184611361565b949350505050565b7f4e487b71000000000000000000000000000000000000000000000000000000005f52603160045260245ffd5b7f415052206d7573742062652067726561746572207468616e20300000000000005f82015250565b5f61191f601a8361165a565b915061192a826118eb565b602082019050919050565b5f6020820190508181035f83015261194c81611913565b9050919050565b7f416d6f756e74206d7573742062652067726561746572207468616e20300000005f82015250565b5f611987601d8361165a565b915061199282611953565b602082019050919050565b5f6020820190508181035f8301526119b48161197b565b9050919050565b7f546f6b656e73206d75737420626520756e6c6f636b65640000000000000000005f82015250565b5f6119ef60178361165a565b91506119fa826119bb565b602082019050919050565b5f6020820190508181035f830152611a1c816119e3565b9050919050565b5f606082019050611a365f830186611481565b611a436020830185611481565b611a506040830184611361565b94935050505056fea2646970667358221220e58fd4c40f7356306a7859319086cec0321d52bfebb238692c7ff6c8510cd5ea64736f6c63430008190033",
  "immutableReferences": {},
  "source": "// SPDX-License-Identifier: MIT\r\npragma solidity ^0.8.25;\r\n\r\nimport \"@openzeppelin/contracts/token/ERC20/IERC20.sol\";\r\nimport \"@openzeppelin/contracts/access/Ownable.sol\";\r\nimport \"@openzeppelin/contracts/utils/ReentrancyGuard.sol\";\r\nimport \"./SharkCoin.sol\";\r\n\r\ncontract SharkCoinStaking is ReentrancyGuard, Ownable {\r\n    IERC20 public sharkCoin;\r\n\r\n    struct Stake {\r\n        uint256 amount;\r\n        uint256 timestamp;\r\n    }\r\n\r\n    uint256 public apr = 10;\r\n    mapping(address => Stake[]) public stakes;\r\n    event Staked(address indexed user, uint256 amount, uint256 timestamp);\r\n    event Unstaked(address indexed user, uint256 amount, uint256 reward, uint256 timestamp);\r\n\r\n    constructor(IERC20 _sharkCoin) Ownable(msg.sender) {\r\n        sharkCoin = _sharkCoin;\r\n    }\r\n\r\n    function stake(uint256 _amount) external nonReentrant {\r\n        require(_amount > 0, \"Amount must be greater than 0\");\r\n        require(SharkCoin(address(sharkCoin)).areTokensUnlocked(msg.sender, _amount), \"Tokens must be unlocked\");\r\n        sharkCoin.transferFrom(msg.sender, address(this), _amount);\r\n        stakes[msg.sender].push(Stake(_amount, block.timestamp));\r\n        emit Staked(msg.sender, _amount, block.timestamp);\r\n    }\r\n\r\n    function unstake(uint256 stakeIndex) external nonReentrant {\r\n        require(stakeIndex < stakes[msg.sender].length, \"Invalid stake index\");\r\n        Stake storage userStake = stakes[msg.sender][stakeIndex];\r\n        require(userStake.amount > 0, \"No tokens staked\");\r\n        require(SharkCoin(address(sharkCoin)).areTokensUnlocked(msg.sender, userStake.amount), \"Stake tokens are still locked\");\r\n        uint256 stakedPeriod = block.timestamp - userStake.timestamp;\r\n        uint256 reward = calculateReward(userStake.amount, stakedPeriod);\r\n        uint256 totalAmount = userStake.amount + reward;\r\n\r\n        sharkCoin.transfer(msg.sender, totalAmount);\r\n        emit Unstaked(msg.sender, userStake.amount, reward, block.timestamp);\r\n\r\n        // shift left\r\n        for (uint i = stakeIndex; i < stakes[msg.sender].length-1; i++){\r\n            stakes[msg.sender][i] = stakes[msg.sender][i+1];\r\n        }\r\n\r\n        stakes[msg.sender].pop();\r\n    }\r\n\r\n    function calculateReward(uint256 _amount, uint256 _stakedPeriod) public view returns (uint256) {\r\n        uint256 rewardRatePerSecond = apr * 1e18 / 365 days / 100;\r\n        return _amount * rewardRatePerSecond * _stakedPeriod / 1e18;\r\n    }\r\n\r\n    function setApr(uint256 _newApr) external onlyOwner {\r\n        require(_newApr > 0, \"APR must be greater than 0\");\r\n        apr = _newApr;\r\n    }\r\n\r\n    function recoverERC20(address tokenAddress, uint256 tokenAmount) external onlyOwner {\r\n        IERC20(tokenAddress).transfer(owner(), tokenAmount);\r\n    }\r\n\r\n    function unstakedBalanceOf(address account) public view returns (uint256) {\r\n        uint256 frozenBalance = SharkCoin(address(sharkCoin)).getFrozenBalance(account);\r\n        return sharkCoin.balanceOf(account) - frozenBalance;\r\n    }\r\n    function getUnlockedBalance(address account) public view returns (uint256) {\r\n        return sharkCoin.balanceOf(account) - SharkCoin(address(sharkCoin)).getFrozenBalance(account);\r\n    }\r\n    function getStakedBalance(address _user) public view returns (uint256) {\r\n        uint256 totalStakedForUser = 0;\r\n\r\n        for (uint i = 0; i < stakes[_user].length; i++) {\r\n            if (SharkCoin(address(sharkCoin)).areTokensUnlocked(_user, stakes[_user][i].amount)) {\r\n                totalStakedForUser += stakes[_user][i].amount;\r\n            }\r\n        }\r\n\r\n        return totalStakedForUser;\r\n    }\r\n}\r\n",
  "sourcePath": "C:\\Cshark\\TT\\blockchaine\\ETH\\sharkCoin\\contracts\\SharkCoinStaking.sol",
  "compiler": {
    "name": "solc",
    "version": "0.8.25+commit.b61c2a91.Emscripten.clang"
  },
  "schemaVersion": "3.4.16",
  "updatedAt": "2024-03-26T13:55:00.085Z",
  "networkType": "ethereum",
  "devdoc": {
    "errors": {
      "OwnableInvalidOwner(address)": [
        {
          "details": "The owner is not a valid owner account. (eg. `address(0)`)"
        }
      ],
      "OwnableUnauthorizedAccount(address)": [
        {
          "details": "The caller account is not authorized to perform an operation."
        }
      ],
      "ReentrancyGuardReentrantCall()": [
        {
          "details": "Unauthorized reentrant call."
        }
      ]
    },
    "kind": "dev",
    "methods": {
      "owner()": {
        "details": "Returns the address of the current owner."
      },
      "renounceOwnership()": {
        "details": "Leaves the contract without owner. It will not be possible to call `onlyOwner` functions. Can only be called by the current owner. NOTE: Renouncing ownership will leave the contract without an owner, thereby disabling any functionality that is only available to the owner."
      },
      "transferOwnership(address)": {
        "details": "Transfers ownership of the contract to a new account (`newOwner`). Can only be called by the current owner."
      }
    },
    "version": 1
  },
  "userdoc": {
    "kind": "user",
    "methods": {},
    "version": 1
  }
}